:020000040000FA
:10000000C60AE2013E088008D3083208100800083A
:10001000AF08D3083208AB080008D30832085408E8
:100020000008D3083208650800083C08D3083208E5
:1000300047080008D3083208A00800083E08040852
:10004000D3083208190800081708D3083208000836
:1000500000081708D308320851080008D3083208EE
:10006000550800083E084008D30832080A0800086E
:100070003E080308D30832080F080008DD082108ED
:1000800008080208D308DD083608000830082108EF
:10009000D50800083E081808D30877081F082B0861
:1000A000D30877082B083E08C008D3083208200878
:1000B00004087F084508D308DD08CB080008EE08CF
:1000C0001108D10800083E08E8081008F4080608DE
:1000D0000808D308CB0856082008FB08D3081208E4
:1000E000AF081008F608D308CB0856082008FB080C
:1000F0003E08F208ED086708D3083A08D00800085F
:100100000608080811080008E0083E084C08D30853
:100110003208D4080008D308CB087E082808FB085A
:10012000D3083A08D0080008120813087A087F0894
:10013000B3082008EA08ED0877083C083C08ED08F9
:1001400067081008DF08D308DD08CB080008AE08F0
:10015000EB08E908FF08080C3900460426040304EC
:100160003D030307B70A000026054604BA0A260421
:100170004604BA0ABB0ABC0ABD0A4605F902B00A1F
:10018000C10AC20A0000260446040008FE0E25002B
:100190004604C00C0200FF0C060038002604F802DA
:1001A000CF0A7B007C000607FB030606FC03470C16
:1001B0003800F802D90AF802DB0A0607FB03060634
:1001C000FC031B02020F4306ED0A1C02020F430749
:1001D000D10AFF0C060006020300F90C0600800C91
:1001E0003D00AB09140C3D00AB09800C3D00AB0990
:1001F000800C3D00AB09150C3D00AB09800C3D00A7
:10020000AB09800C3D00AB09160C3D00AB09800C1E
:100210003D00AB09800C3D00AB09170C3D00AB095C
:10022000800C3D00AB09800C3D00AB09130C3D0078
:10023000AB09D60C3D00AB09800C3D00AB09120C9C
:100240003D00AB09F90C3D00AB09800C3D00AB094A
:100250000C0C3D00AB095A0C3D00AB09800C3D0075
:10026000AB090C0C3D00AB09520C3D00AB09800CF6
:100270003D00AB090C0C3D00AB09440C3D00AB0943
:1002800040003A006E0C3D00AB091A023D00AB097C
:100290001A0201093D00AB09BA021A020109FF0F57
:1002A0004306530B420B40003D00AB0940003D00AC
:1002B000AB09C30C3D00AB0940003D00AB09010C8C
:1002C0003D00AB0940003D00AB0940003D00AB09DB
:1002D000020C3D00AB096E0C3D00AB09800C3D00EB
:1002E000AB09240C3D00AB09800C3D00AB09E90AC9
:021FFE00FB0FD7
:00000001FF
